{
  "contractName": "EZExchange",
  "abi": [
    {
      "constant": true,
      "inputs": [],
      "name": "name",
      "outputs": [
        {
          "name": "",
          "type": "string"
        }
      ],
      "payable": false,
      "stateMutability": "view",
      "type": "function"
    },
    {
      "constant": true,
      "inputs": [],
      "name": "decimals",
      "outputs": [
        {
          "name": "",
          "type": "uint8"
        }
      ],
      "payable": false,
      "stateMutability": "view",
      "type": "function"
    },
    {
      "constant": true,
      "inputs": [],
      "name": "ico3_startdate",
      "outputs": [
        {
          "name": "",
          "type": "uint256"
        }
      ],
      "payable": false,
      "stateMutability": "view",
      "type": "function"
    },
    {
      "constant": true,
      "inputs": [],
      "name": "_price_tokn",
      "outputs": [
        {
          "name": "",
          "type": "uint256"
        }
      ],
      "payable": false,
      "stateMutability": "view",
      "type": "function"
    },
    {
      "constant": true,
      "inputs": [],
      "name": "pre_startdate",
      "outputs": [
        {
          "name": "",
          "type": "uint256"
        }
      ],
      "payable": false,
      "stateMutability": "view",
      "type": "function"
    },
    {
      "constant": true,
      "inputs": [],
      "name": "ico4_startdate",
      "outputs": [
        {
          "name": "",
          "type": "uint256"
        }
      ],
      "payable": false,
      "stateMutability": "view",
      "type": "function"
    },
    {
      "constant": true,
      "inputs": [],
      "name": "bonus",
      "outputs": [
        {
          "name": "",
          "type": "uint256"
        }
      ],
      "payable": false,
      "stateMutability": "view",
      "type": "function"
    },
    {
      "constant": true,
      "inputs": [],
      "name": "owner",
      "outputs": [
        {
          "name": "",
          "type": "address"
        }
      ],
      "payable": false,
      "stateMutability": "view",
      "type": "function"
    },
    {
      "constant": true,
      "inputs": [],
      "name": "symbol",
      "outputs": [
        {
          "name": "",
          "type": "string"
        }
      ],
      "payable": false,
      "stateMutability": "view",
      "type": "function"
    },
    {
      "constant": true,
      "inputs": [],
      "name": "_totalsupply",
      "outputs": [
        {
          "name": "",
          "type": "uint256"
        }
      ],
      "payable": false,
      "stateMutability": "view",
      "type": "function"
    },
    {
      "constant": true,
      "inputs": [],
      "name": "stage",
      "outputs": [
        {
          "name": "",
          "type": "uint8"
        }
      ],
      "payable": false,
      "stateMutability": "view",
      "type": "function"
    },
    {
      "constant": true,
      "inputs": [],
      "name": "ico1_startdate",
      "outputs": [
        {
          "name": "",
          "type": "uint256"
        }
      ],
      "payable": false,
      "stateMutability": "view",
      "type": "function"
    },
    {
      "constant": true,
      "inputs": [],
      "name": "priceFactor",
      "outputs": [
        {
          "name": "",
          "type": "uint256"
        }
      ],
      "payable": false,
      "stateMutability": "view",
      "type": "function"
    },
    {
      "constant": true,
      "inputs": [],
      "name": "ico2_startdate",
      "outputs": [
        {
          "name": "",
          "type": "uint256"
        }
      ],
      "payable": false,
      "stateMutability": "view",
      "type": "function"
    },
    {
      "inputs": [
        {
          "name": "EtherPriceFactor",
          "type": "uint256"
        }
      ],
      "payable": false,
      "stateMutability": "nonpayable",
      "type": "constructor"
    },
    {
      "payable": true,
      "stateMutability": "payable",
      "type": "fallback"
    },
    {
      "anonymous": false,
      "inputs": [
        {
          "indexed": true,
          "name": "from",
          "type": "address"
        },
        {
          "indexed": true,
          "name": "to",
          "type": "address"
        },
        {
          "indexed": false,
          "name": "value",
          "type": "uint256"
        }
      ],
      "name": "Transfer",
      "type": "event"
    },
    {
      "anonymous": false,
      "inputs": [
        {
          "indexed": true,
          "name": "owner",
          "type": "address"
        },
        {
          "indexed": true,
          "name": "spender",
          "type": "address"
        },
        {
          "indexed": false,
          "name": "value",
          "type": "uint256"
        }
      ],
      "name": "Approval",
      "type": "event"
    },
    {
      "constant": false,
      "inputs": [
        {
          "name": "newPricefactor",
          "type": "uint256"
        }
      ],
      "name": "setpricefactor",
      "outputs": [],
      "payable": false,
      "stateMutability": "nonpayable",
      "type": "function"
    },
    {
      "constant": false,
      "inputs": [],
      "name": "start_PREICO",
      "outputs": [],
      "payable": false,
      "stateMutability": "nonpayable",
      "type": "function"
    },
    {
      "constant": false,
      "inputs": [],
      "name": "start_ICO1",
      "outputs": [],
      "payable": false,
      "stateMutability": "nonpayable",
      "type": "function"
    },
    {
      "constant": false,
      "inputs": [],
      "name": "start_ICO2",
      "outputs": [],
      "payable": false,
      "stateMutability": "nonpayable",
      "type": "function"
    },
    {
      "constant": false,
      "inputs": [],
      "name": "start_ICO3",
      "outputs": [],
      "payable": false,
      "stateMutability": "nonpayable",
      "type": "function"
    },
    {
      "constant": false,
      "inputs": [],
      "name": "start_ICO4",
      "outputs": [],
      "payable": false,
      "stateMutability": "nonpayable",
      "type": "function"
    },
    {
      "constant": false,
      "inputs": [],
      "name": "PauseICO",
      "outputs": [],
      "payable": false,
      "stateMutability": "nonpayable",
      "type": "function"
    },
    {
      "constant": false,
      "inputs": [],
      "name": "ResumeICO",
      "outputs": [],
      "payable": false,
      "stateMutability": "nonpayable",
      "type": "function"
    },
    {
      "constant": false,
      "inputs": [],
      "name": "end_ICO",
      "outputs": [],
      "payable": false,
      "stateMutability": "nonpayable",
      "type": "function"
    },
    {
      "constant": true,
      "inputs": [],
      "name": "totalSupply",
      "outputs": [
        {
          "name": "total_Supply",
          "type": "uint256"
        }
      ],
      "payable": false,
      "stateMutability": "view",
      "type": "function"
    },
    {
      "constant": true,
      "inputs": [
        {
          "name": "_owner",
          "type": "address"
        }
      ],
      "name": "balanceOf",
      "outputs": [
        {
          "name": "balance",
          "type": "uint256"
        }
      ],
      "payable": false,
      "stateMutability": "view",
      "type": "function"
    },
    {
      "constant": false,
      "inputs": [
        {
          "name": "_from",
          "type": "address"
        },
        {
          "name": "_to",
          "type": "address"
        },
        {
          "name": "_amount",
          "type": "uint256"
        }
      ],
      "name": "transferFrom",
      "outputs": [
        {
          "name": "success",
          "type": "bool"
        }
      ],
      "payable": false,
      "stateMutability": "nonpayable",
      "type": "function"
    },
    {
      "constant": false,
      "inputs": [
        {
          "name": "_spender",
          "type": "address"
        },
        {
          "name": "_amount",
          "type": "uint256"
        }
      ],
      "name": "approve",
      "outputs": [
        {
          "name": "success",
          "type": "bool"
        }
      ],
      "payable": false,
      "stateMutability": "nonpayable",
      "type": "function"
    },
    {
      "constant": true,
      "inputs": [
        {
          "name": "_owner",
          "type": "address"
        },
        {
          "name": "_spender",
          "type": "address"
        }
      ],
      "name": "allowance",
      "outputs": [
        {
          "name": "remaining",
          "type": "uint256"
        }
      ],
      "payable": false,
      "stateMutability": "view",
      "type": "function"
    },
    {
      "constant": false,
      "inputs": [
        {
          "name": "_to",
          "type": "address"
        },
        {
          "name": "_amount",
          "type": "uint256"
        }
      ],
      "name": "transfer",
      "outputs": [
        {
          "name": "success",
          "type": "bool"
        }
      ],
      "payable": false,
      "stateMutability": "nonpayable",
      "type": "function"
    },
    {
      "constant": false,
      "inputs": [],
      "name": "drain",
      "outputs": [],
      "payable": false,
      "stateMutability": "nonpayable",
      "type": "function"
    }
  ],
  "bytecode": "0x60606040526aa56fa5b99019a5c80000006000556000600660006101000a81548160ff021916908315150217905550341561003957600080fd5b604051602080612762833981016040528080519060200190919050506000811415151561006557600080fd5b33600160006101000a81548173ffffffffffffffffffffffffffffffffffffffff021916908373ffffffffffffffffffffffffffffffffffffffff1602179055506a422ca8b0a00a425000000060176000600160009054906101000a900473ffffffffffffffffffffffffffffffffffffffff1673ffffffffffffffffffffffffffffffffffffffff1673ffffffffffffffffffffffffffffffffffffffff168152602001908152602001600020819055506000601b60006101000a81548160ff0219169083600781111561013657fe5b021790555080601681905550600160009054906101000a900473ffffffffffffffffffffffffffffffffffffffff1673ffffffffffffffffffffffffffffffffffffffff1660007fddf252ad1be2c89b69c2b068fc378daa952ba7f163c4a11628f55a4df523b3ef60176000600160009054906101000a900473ffffffffffffffffffffffffffffffffffffffff1673ffffffffffffffffffffffffffffffffffffffff1673ffffffffffffffffffffffffffffffffffffffff168152602001908152602001600020546040518082815260200191505060405180910390a35061253d806102256000396000f300606060405260043610610180576000357c0100000000000000000000000000000000000000000000000000000000900463ffffffff16806302c3d7f6146102c657806306fdde03146102db578063095ea7b3146103695780630df12532146103c357806318160ddd146103e657806323b872dd1461040f5780632a1e6f7214610488578063313ce5671461049d578063405df338146104cc578063495cc7df146104e157806361f127dd1461050a57806364e8d682146105335780636b47694d1461055c57806370a082311461058557806375b4d78c146105d25780637aa7ab6a146105fb5780638da5cb5b1461061057806395d89b41146106655780639890220b146106f3578063a393dc4414610708578063a9059cbb14610731578063ad6bc7f41461078b578063b7d08056146107a0578063c040e6b8146107b5578063cd7a2c3b146107ec578063cf5ae51614610801578063d44aecb014610816578063dd62ed3e1461083f578063dfb2866d146108ab578063ea9c3bb3146108d4575b60078081111561018c57fe5b601b60009054906101000a900460ff1660078111156101a757fe5b141515156101b457600080fd5b600660009054906101000a900460ff1615801561021f5750600160009054906101000a900473ffffffffffffffffffffffffffffffffffffffff1673ffffffffffffffffffffffffffffffffffffffff163373ffffffffffffffffffffffffffffffffffffffff1614155b151561022a57600080fd5b61026660025461025861024960646016546108fd90919063ffffffff16565b346108fd90919063ffffffff16565b61093890919063ffffffff16565b600381905550610274610953565b601a819055506102a46064610296601a546003546108fd90919063ffffffff16565b61093890919063ffffffff16565b600481905550600454600354016005819055506102c333600554610ad3565b50005b34156102d157600080fd5b6102d9610ced565b005b34156102e657600080fd5b6102ee610f2d565b6040518080602001828103825283818151815260200191508051906020019080838360005b8381101561032e578082015181840152602081019050610313565b50505050905090810190601f16801561035b5780820380516001836020036101000a031916815260200191505b509250505060405180910390f35b341561037457600080fd5b6103a9600480803573ffffffffffffffffffffffffffffffffffffffff16906020019091908035906020019091905050610f66565b604051808215151515815260200191505060405180910390f35b34156103ce57600080fd5b6103e4600480803590602001909190505061107d565b005b34156103f157600080fd5b6103f96110e3565b6040518082815260200191505060405180910390f35b341561041a57600080fd5b61046e600480803573ffffffffffffffffffffffffffffffffffffffff1690602001909190803573ffffffffffffffffffffffffffffffffffffffff169060200190919080359060200190919050506110ec565b604051808215151515815260200191505060405180910390f35b341561049357600080fd5b61049b61149f565b005b34156104a857600080fd5b6104b06116da565b604051808260ff1660ff16815260200191505060405180910390f35b34156104d757600080fd5b6104df6116df565b005b34156104ec57600080fd5b6104f4611877565b6040518082815260200191505060405180910390f35b341561051557600080fd5b61051d61187d565b6040518082815260200191505060405180910390f35b341561053e57600080fd5b610546611883565b6040518082815260200191505060405180910390f35b341561056757600080fd5b61056f611889565b6040518082815260200191505060405180910390f35b341561059057600080fd5b6105bc600480803573ffffffffffffffffffffffffffffffffffffffff1690602001909190505061188f565b6040518082815260200191505060405180910390f35b34156105dd57600080fd5b6105e56118d8565b6040518082815260200191505060405180910390f35b341561060657600080fd5b61060e6118de565b005b341561061b57600080fd5b610623611b19565b604051808273ffffffffffffffffffffffffffffffffffffffff1673ffffffffffffffffffffffffffffffffffffffff16815260200191505060405180910390f35b341561067057600080fd5b610678611b3f565b6040518080602001828103825283818151815260200191508051906020019080838360005b838110156106b857808201518184015260208101905061069d565b50505050905090810190601f1680156106e55780820380516001836020036101000a031916815260200191505b509250505060405180910390f35b34156106fe57600080fd5b610706611b78565b005b341561071357600080fd5b61071b611c55565b6040518082815260200191505060405180910390f35b341561073c57600080fd5b610771600480803573ffffffffffffffffffffffffffffffffffffffff16906020019091908035906020019091905050611c5b565b604051808215151515815260200191505060405180910390f35b341561079657600080fd5b61079e611e76565b005b34156107ab57600080fd5b6107b36120b1565b005b34156107c057600080fd5b6107c86122f4565b604051808260078111156107d857fe5b60ff16815260200191505060405180910390f35b34156107f757600080fd5b6107ff612307565b005b341561080c57600080fd5b610814612380565b005b341561082157600080fd5b6108296123f9565b6040518082815260200191505060405180910390f35b341561084a57600080fd5b610895600480803573ffffffffffffffffffffffffffffffffffffffff1690602001909190803573ffffffffffffffffffffffffffffffffffffffff169060200190919050506123ff565b6040518082815260200191505060405180910390f35b34156108b657600080fd5b6108be6124ce565b6040518082815260200191505060405180910390f35b34156108df57600080fd5b6108e76124d4565b6040518082815260200191505060405180910390f35b60008060008414156109125760009150610931565b828402905082848281151561092357fe5b0414151561092d57fe5b8091505b5092915050565b600080828481151561094657fe5b0490508091505092915050565b60006001600781111561096257fe5b601b60009054906101000a900460ff16600781111561097d57fe5b14801561098c5750600c544211155b1561099e576028601981905550610acb565b600260078111156109ab57fe5b601b60009054906101000a900460ff1660078111156109c657fe5b1480156109d55750600d544211155b156109e757601e601981905550610aca565b600360078111156109f457fe5b601b60009054906101000a900460ff166007811115610a0f57fe5b148015610a1e5750600e544211155b15610a30576014601981905550610ac9565b60046007811115610a3d57fe5b601b60009054906101000a900460ff166007811115610a5857fe5b148015610a675750600f544211155b15610a7957600a601981905550610ac8565b60056007811115610a8657fe5b601b60009054906101000a900460ff166007811115610aa157fe5b148015610ab057506010544211155b15610ac2576000601981905550610ac7565b600080fd5b5b5b5b5b601954905090565b6000808373ffffffffffffffffffffffffffffffffffffffff1614151515610afa57600080fd5b81601760003073ffffffffffffffffffffffffffffffffffffffff1673ffffffffffffffffffffffffffffffffffffffff1681526020019081526020016000205410158015610b495750600082115b1515610b5457600080fd5b610ba682601760003073ffffffffffffffffffffffffffffffffffffffff1673ffffffffffffffffffffffffffffffffffffffff168152602001908152602001600020546124da90919063ffffffff16565b601760003073ffffffffffffffffffffffffffffffffffffffff1673ffffffffffffffffffffffffffffffffffffffff16815260200190815260200160002081905550610c3b82601760008673ffffffffffffffffffffffffffffffffffffffff1673ffffffffffffffffffffffffffffffffffffffff168152602001908152602001600020546124f390919063ffffffff16565b601760008573ffffffffffffffffffffffffffffffffffffffff1673ffffffffffffffffffffffffffffffffffffffff168152602001908152602001600020819055508273ffffffffffffffffffffffffffffffffffffffff163073ffffffffffffffffffffffffffffffffffffffff167fddf252ad1be2c89b69c2b068fc378daa952ba7f163c4a11628f55a4df523b3ef846040518082815260200191505060405180910390a36001905092915050565b600160009054906101000a900473ffffffffffffffffffffffffffffffffffffffff1673ffffffffffffffffffffffffffffffffffffffff163373ffffffffffffffffffffffffffffffffffffffff16141515610d4957600080fd5b6005806007811115610d5757fe5b601b60009054906101000a900460ff166007811115610d7257fe5b141515610d7e57600080fd5b601054421180610dcd57506000601760003073ffffffffffffffffffffffffffffffffffffffff1673ffffffffffffffffffffffffffffffffffffffff16815260200190815260200160002054145b1515610dd857600080fd5b6007601b60006101000a81548160ff02191690836007811115610df757fe5b0217905550610e50601760003073ffffffffffffffffffffffffffffffffffffffff1673ffffffffffffffffffffffffffffffffffffffff168152602001908152602001600020546000546124da90919063ffffffff16565b6000819055506000601760003073ffffffffffffffffffffffffffffffffffffffff1673ffffffffffffffffffffffffffffffffffffffff1681526020019081526020016000208190555060003073ffffffffffffffffffffffffffffffffffffffff167fddf252ad1be2c89b69c2b068fc378daa952ba7f163c4a11628f55a4df523b3ef601760003073ffffffffffffffffffffffffffffffffffffffff1673ffffffffffffffffffffffffffffffffffffffff168152602001908152602001600020546040518082815260200191505060405180910390a350565b6040805190810160405280600b81526020017f455a2045786368616e676500000000000000000000000000000000000000000081525081565b6000808373ffffffffffffffffffffffffffffffffffffffff1614151515610f8d57600080fd5b81601860003373ffffffffffffffffffffffffffffffffffffffff1673ffffffffffffffffffffffffffffffffffffffff16815260200190815260200160002060008573ffffffffffffffffffffffffffffffffffffffff1673ffffffffffffffffffffffffffffffffffffffff168152602001908152602001600020819055508273ffffffffffffffffffffffffffffffffffffffff163373ffffffffffffffffffffffffffffffffffffffff167f8c5be1e5ebec7d5bd14f71427d1e84f3dd0314c0f7b2291e5b200ac8c7c3b925846040518082815260200191505060405180910390a36001905092915050565b600160009054906101000a900473ffffffffffffffffffffffffffffffffffffffff1673ffffffffffffffffffffffffffffffffffffffff163373ffffffffffffffffffffffffffffffffffffffff161415156110d957600080fd5b8060168190555050565b60008054905090565b6000808373ffffffffffffffffffffffffffffffffffffffff161415151561111357600080fd5b81601760008673ffffffffffffffffffffffffffffffffffffffff1673ffffffffffffffffffffffffffffffffffffffff16815260200190815260200160002054101580156111de575081601860008673ffffffffffffffffffffffffffffffffffffffff1673ffffffffffffffffffffffffffffffffffffffff16815260200190815260200160002060003373ffffffffffffffffffffffffffffffffffffffff1673ffffffffffffffffffffffffffffffffffffffff1681526020019081526020016000205410155b80156111eb575060008210155b15156111f657600080fd5b61124882601760008773ffffffffffffffffffffffffffffffffffffffff1673ffffffffffffffffffffffffffffffffffffffff168152602001908152602001600020546124da90919063ffffffff16565b601760008673ffffffffffffffffffffffffffffffffffffffff1673ffffffffffffffffffffffffffffffffffffffff1681526020019081526020016000208190555061131a82601860008773ffffffffffffffffffffffffffffffffffffffff1673ffffffffffffffffffffffffffffffffffffffff16815260200190815260200160002060003373ffffffffffffffffffffffffffffffffffffffff1673ffffffffffffffffffffffffffffffffffffffff168152602001908152602001600020546124da90919063ffffffff16565b601860008673ffffffffffffffffffffffffffffffffffffffff1673ffffffffffffffffffffffffffffffffffffffff16815260200190815260200160002060003373ffffffffffffffffffffffffffffffffffffffff1673ffffffffffffffffffffffffffffffffffffffff168152602001908152602001600020819055506113ec82601760008673ffffffffffffffffffffffffffffffffffffffff1673ffffffffffffffffffffffffffffffffffffffff168152602001908152602001600020546124f390919063ffffffff16565b601760008573ffffffffffffffffffffffffffffffffffffffff1673ffffffffffffffffffffffffffffffffffffffff168152602001908152602001600020819055508273ffffffffffffffffffffffffffffffffffffffff168473ffffffffffffffffffffffffffffffffffffffff167fddf252ad1be2c89b69c2b068fc378daa952ba7f163c4a11628f55a4df523b3ef846040518082815260200191505060405180910390a3600190509392505050565b600160009054906101000a900473ffffffffffffffffffffffffffffffffffffffff1673ffffffffffffffffffffffffffffffffffffffff163373ffffffffffffffffffffffffffffffffffffffff161415156114fb57600080fd5b600480600781111561150957fe5b601b60009054906101000a900460ff16600781111561152457fe5b14151561153057600080fd5b600f5442118061157f57506000601760003073ffffffffffffffffffffffffffffffffffffffff1673ffffffffffffffffffffffffffffffffffffffff16815260200190815260200160002054145b151561158a57600080fd5b6005601b60006101000a81548160ff021916908360078111156115a957fe5b02179055506000600660006101000a81548160ff0219169083151502179055506a14adf4b7320334b900000060158190555061162f601554601760003073ffffffffffffffffffffffffffffffffffffffff1673ffffffffffffffffffffffffffffffffffffffff168152602001908152602001600020546124f390919063ffffffff16565b601760003073ffffffffffffffffffffffffffffffffffffffff1673ffffffffffffffffffffffffffffffffffffffff1681526020019081526020016000208190555042600b8190555062093a8042016010819055503073ffffffffffffffffffffffffffffffffffffffff1660007fddf252ad1be2c89b69c2b068fc378daa952ba7f163c4a11628f55a4df523b3ef6015546040518082815260200191505060405180910390a350565b601281565b600160009054906101000a900473ffffffffffffffffffffffffffffffffffffffff1673ffffffffffffffffffffffffffffffffffffffff163373ffffffffffffffffffffffffffffffffffffffff1614151561173b57600080fd5b600080600781111561174957fe5b601b60009054906101000a900460ff16600781111561176457fe5b14151561177057600080fd5b6001601b60006101000a81548160ff0219169083600781111561178f57fe5b02179055506000600660006101000a81548160ff0219169083151502179055506a108b2a2c28029094000000601181905550601154601760003073ffffffffffffffffffffffffffffffffffffffff1673ffffffffffffffffffffffffffffffffffffffff168152602001908152602001600020819055504260078190555062278d004201600c81905550601e6002819055503073ffffffffffffffffffffffffffffffffffffffff1660007fddf252ad1be2c89b69c2b068fc378daa952ba7f163c4a11628f55a4df523b3ef6011546040518082815260200191505060405180910390a350565b600a5481565b60025481565b60075481565b600b5481565b6000601760008373ffffffffffffffffffffffffffffffffffffffff1673ffffffffffffffffffffffffffffffffffffffff168152602001908152602001600020549050919050565b601a5481565b600160009054906101000a900473ffffffffffffffffffffffffffffffffffffffff1673ffffffffffffffffffffffffffffffffffffffff163373ffffffffffffffffffffffffffffffffffffffff1614151561193a57600080fd5b600380600781111561194857fe5b601b60009054906101000a900460ff16600781111561196357fe5b14151561196f57600080fd5b600e544211806119be57506000601760003073ffffffffffffffffffffffffffffffffffffffff1673ffffffffffffffffffffffffffffffffffffffff16815260200190815260200160002054145b15156119c957600080fd5b6004601b60006101000a81548160ff021916908360078111156119e857fe5b02179055506000600660006101000a81548160ff0219169083151502179055506a14adf4b7320334b9000000601481905550611a6e601454601760003073ffffffffffffffffffffffffffffffffffffffff1673ffffffffffffffffffffffffffffffffffffffff168152602001908152602001600020546124f390919063ffffffff16565b601760003073ffffffffffffffffffffffffffffffffffffffff1673ffffffffffffffffffffffffffffffffffffffff1681526020019081526020016000208190555042600a8190555062093a804201600f819055503073ffffffffffffffffffffffffffffffffffffffff1660007fddf252ad1be2c89b69c2b068fc378daa952ba7f163c4a11628f55a4df523b3ef6014546040518082815260200191505060405180910390a350565b600160009054906101000a900473ffffffffffffffffffffffffffffffffffffffff1681565b6040805190810160405280600381526020017f455a58000000000000000000000000000000000000000000000000000000000081525081565b6000600160009054906101000a900473ffffffffffffffffffffffffffffffffffffffff1673ffffffffffffffffffffffffffffffffffffffff163373ffffffffffffffffffffffffffffffffffffffff16141515611bd657600080fd5b309050600160009054906101000a900473ffffffffffffffffffffffffffffffffffffffff1673ffffffffffffffffffffffffffffffffffffffff166108fc8273ffffffffffffffffffffffffffffffffffffffff16319081150290604051600060405180830381858888f193505050501515611c5257600080fd5b50565b60005481565b6000808373ffffffffffffffffffffffffffffffffffffffff1614151515611c8257600080fd5b81601760003373ffffffffffffffffffffffffffffffffffffffff1673ffffffffffffffffffffffffffffffffffffffff1681526020019081526020016000205410158015611cd2575060008210155b1515611cdd57600080fd5b611d2f82601760003373ffffffffffffffffffffffffffffffffffffffff1673ffffffffffffffffffffffffffffffffffffffff168152602001908152602001600020546124da90919063ffffffff16565b601760003373ffffffffffffffffffffffffffffffffffffffff1673ffffffffffffffffffffffffffffffffffffffff16815260200190815260200160002081905550611dc482601760008673ffffffffffffffffffffffffffffffffffffffff1673ffffffffffffffffffffffffffffffffffffffff168152602001908152602001600020546124f390919063ffffffff16565b601760008573ffffffffffffffffffffffffffffffffffffffff1673ffffffffffffffffffffffffffffffffffffffff168152602001908152602001600020819055508273ffffffffffffffffffffffffffffffffffffffff163373ffffffffffffffffffffffffffffffffffffffff167fddf252ad1be2c89b69c2b068fc378daa952ba7f163c4a11628f55a4df523b3ef846040518082815260200191505060405180910390a36001905092915050565b600160009054906101000a900473ffffffffffffffffffffffffffffffffffffffff1673ffffffffffffffffffffffffffffffffffffffff163373ffffffffffffffffffffffffffffffffffffffff16141515611ed257600080fd5b6002806007811115611ee057fe5b601b60009054906101000a900460ff166007811115611efb57fe5b141515611f0757600080fd5b600d54421180611f5657506000601760003073ffffffffffffffffffffffffffffffffffffffff1673ffffffffffffffffffffffffffffffffffffffff16815260200190815260200160002054145b1515611f6157600080fd5b6003601b60006101000a81548160ff02191690836007811115611f8057fe5b02179055506000600660006101000a81548160ff0219169083151502179055506a14adf4b7320334b9000000601381905550612006601354601760003073ffffffffffffffffffffffffffffffffffffffff1673ffffffffffffffffffffffffffffffffffffffff168152602001908152602001600020546124f390919063ffffffff16565b601760003073ffffffffffffffffffffffffffffffffffffffff1673ffffffffffffffffffffffffffffffffffffffff168152602001908152602001600020819055504260098190555062093a804201600e819055503073ffffffffffffffffffffffffffffffffffffffff1660007fddf252ad1be2c89b69c2b068fc378daa952ba7f163c4a11628f55a4df523b3ef6013546040518082815260200191505060405180910390a350565b600160009054906101000a900473ffffffffffffffffffffffffffffffffffffffff1673ffffffffffffffffffffffffffffffffffffffff163373ffffffffffffffffffffffffffffffffffffffff1614151561210d57600080fd5b600180600781111561211b57fe5b601b60009054906101000a900460ff16600781111561213657fe5b14151561214257600080fd5b600c5442118061219157506000601760003073ffffffffffffffffffffffffffffffffffffffff1673ffffffffffffffffffffffffffffffffffffffff16815260200190815260200160002054145b151561219c57600080fd5b6002601b60006101000a81548160ff021916908360078111156121bb57fe5b02179055506000600660006101000a81548160ff0219169083151502179055506a14adf4b7320334b9000000601281905550612241601254601760003073ffffffffffffffffffffffffffffffffffffffff1673ffffffffffffffffffffffffffffffffffffffff168152602001908152602001600020546124f390919063ffffffff16565b601760003073ffffffffffffffffffffffffffffffffffffffff1673ffffffffffffffffffffffffffffffffffffffff168152602001908152602001600020819055504260088190555062093a804201600d8190555060286002819055503073ffffffffffffffffffffffffffffffffffffffff1660007fddf252ad1be2c89b69c2b068fc378daa952ba7f163c4a11628f55a4df523b3ef6012546040518082815260200191505060405180910390a350565b601b60009054906101000a900460ff1681565b600160009054906101000a900473ffffffffffffffffffffffffffffffffffffffff1673ffffffffffffffffffffffffffffffffffffffff163373ffffffffffffffffffffffffffffffffffffffff1614151561236357600080fd5b6000600660006101000a81548160ff021916908315150217905550565b600160009054906101000a900473ffffffffffffffffffffffffffffffffffffffff1673ffffffffffffffffffffffffffffffffffffffff163373ffffffffffffffffffffffffffffffffffffffff161415156123dc57600080fd5b6001600660006101000a81548160ff021916908315150217905550565b60085481565b6000808373ffffffffffffffffffffffffffffffffffffffff161415801561243e575060008273ffffffffffffffffffffffffffffffffffffffff1614155b151561244957600080fd5b601860008473ffffffffffffffffffffffffffffffffffffffff1673ffffffffffffffffffffffffffffffffffffffff16815260200190815260200160002060008373ffffffffffffffffffffffffffffffffffffffff1673ffffffffffffffffffffffffffffffffffffffff16815260200190815260200160002054905092915050565b60165481565b60095481565b60008282111515156124e857fe5b818303905092915050565b600080828401905083811015151561250757fe5b80915050929150505600a165627a7a72305820f33ebfd3218170969ad7efe0c093be2d6232a98e6d177d83b70e5b3d24283e5f0029",
  "source": "pragma solidity ^0.4.21;\r\n\r\n/**\r\n * @title SafeMath\r\n * @dev Math operations with safety checks that throw on error\r\n */\r\nlibrary SafeMath {\r\n    function mul(uint256 a, uint256 b) internal pure returns (uint256) {\r\n        if (a == 0) {\r\n            return 0;\r\n        }\r\n        uint256 c = a * b;\r\n        assert(c / a == b);\r\n        return c;\r\n    }\r\n\r\n    function div(uint256 a, uint256 b) internal pure returns (uint256) {\r\n        // assert(b > 0); // Solidity automatically throws when dividing by 0\r\n        uint256 c = a / b;\r\n        // assert(a == b * c + a % b); // There is no case in which this doesn't hold\r\n        return c;\r\n    }\r\n\r\n    function sub(uint256 a, uint256 b) internal pure returns (uint256) {\r\n        assert(b <= a);\r\n        return a - b;\r\n    }\r\n\r\n    function add(uint256 a, uint256 b) internal pure returns (uint256) {\r\n        uint256 c = a + b;\r\n        assert(c >= a);\r\n        return c;\r\n    }\r\n}\r\n\r\ncontract ERC20 {\r\n    function totalSupply()public view returns (uint total_Supply);\r\n    function balanceOf(address who)public view returns (uint256);\r\n    function allowance(address owner, address spender)public view returns (uint);\r\n    function transferFrom(address from, address to, uint value)public returns (bool ok);\r\n    function approve(address spender, uint value)public returns (bool ok);\r\n    function transfer(address to, uint value)public returns (bool ok);\r\n    event Transfer(address indexed from, address indexed to, uint value);\r\n    event Approval(address indexed owner, address indexed spender, uint value);\r\n}\r\n\r\n\r\ncontract EZExchange is ERC20 {\r\n    using SafeMath for uint256;\r\n    // Name of the token\r\n    string public constant name = \"EZ Exchange\";\r\n\r\n    // Symbol of token\r\n    string public constant symbol = \"EZX\";\r\n    uint8 public constant decimals = 18;\r\n    uint public _totalsupply = 200000000 * 10 ** 18; // 200 Million total supply // muliplies dues to decimal precision\r\n    address public owner;                    // Owner of this contract\r\n    uint256 public _price_tokn; \r\n    uint256 no_of_tokens;\r\n    uint256 bonus_token;\r\n    uint256 total_token;\r\n    bool stopped = false;\r\n    uint256 public pre_startdate;\r\n    uint256 public ico1_startdate;\r\n    uint256 public ico2_startdate;\r\n    uint256 public ico3_startdate;\r\n    uint256 public ico4_startdate;\r\n    uint256 pre_enddate;\r\n    uint256 ico1_enddate;\r\n    uint256 ico2_enddate;\r\n    uint256 ico3_enddate;\r\n    uint256 ico4_enddate;\r\n    uint256 maxCap_PRE;\r\n    uint256 maxCap_ICO1;\r\n    uint256 maxCap_ICO2;\r\n    uint256 maxCap_ICO3;\r\n    uint256 maxCap_ICO4;\r\n    \r\n    uint public priceFactor;\r\n    mapping(address => uint) balances;\r\n    mapping(address => mapping(address => uint)) allowed;\r\n    uint bon;\r\n    uint public bonus;\r\n    \r\n    enum Stages {\r\n        NOTSTARTED,\r\n        PREICO,\r\n        ICO1,\r\n        ICO2,\r\n        ICO3,\r\n        ICO4,\r\n        PAUSED,\r\n        ENDED\r\n    }\r\n    Stages public stage;\r\n    \r\n    modifier atStage(Stages _stage) {\r\n        require (stage == _stage);\r\n        _;\r\n    }\r\n\r\n    modifier onlyOwner(){\r\n        require (msg.sender == owner);\r\n        _;\r\n    }\r\n    \r\n    function EZExchange(uint256 EtherPriceFactor) public {\r\n        require(EtherPriceFactor != 0);\r\n        owner = msg.sender;\r\n        balances[owner] = 80000000 * 10 ** 18;       // 80 million to owner\r\n        stage = Stages.NOTSTARTED;\r\n        priceFactor = EtherPriceFactor;\r\n        emit  Transfer(0, owner, balances[owner]);\r\n    }\r\n  \r\n    function setpricefactor(uint256 newPricefactor) external onlyOwner {\r\n        priceFactor = newPricefactor;\r\n    }\r\n    \r\n    function () public payable {\r\n        require(stage != Stages.ENDED);\r\n        require(!stopped && msg.sender != owner);\r\n        no_of_tokens = ((msg.value).mul(priceFactor.mul(100))).div(_price_tokn);\r\n        bonus = bonuscal();\r\n        bonus_token = ((no_of_tokens).mul(bonus)).div(100); \r\n        total_token = no_of_tokens + bonus_token;\r\n        transferTokens(msg.sender,total_token);\r\n       \r\n    }\r\n\r\n    //bonuc calculation for preico on per day basis\r\n    function bonuscal() private returns (uint256 cp) {\r\n        if( stage == Stages.PREICO && now <= pre_enddate) {\r\n            bon = 40;\r\n        } else if(stage == Stages.ICO1 && now <= ico1_enddate) {\r\n            bon = 30;\r\n        } else if(stage == Stages.ICO2 && now <= ico2_enddate) {\r\n            bon = 20;\r\n        } else if(stage == Stages.ICO3 && now <= ico3_enddate) {\r\n            bon = 10;\r\n        } else if(stage == Stages.ICO4 && now <= ico4_enddate) {\r\n            bon = 0;\r\n        } else {\r\n            revert();\r\n        }\r\n        return bon;\r\n    }\r\n    \r\n  \r\n    function start_PREICO() public onlyOwner atStage(Stages.NOTSTARTED) {\r\n        stage = Stages.PREICO;\r\n        stopped = false;\r\n        maxCap_PRE = 20000000 * 10 **18;        // 20 million\r\n        balances[address(this)] = maxCap_PRE;\r\n        pre_startdate = now;\r\n        pre_enddate = now + 30 days;\r\n        _price_tokn = 30; // Price in Cents\r\n        emit  Transfer(0, address(this), maxCap_PRE);\r\n    }\r\n      \r\n    function start_ICO1() public onlyOwner atStage(Stages.PREICO) {\r\n        require(now > pre_enddate || balances[address(this)] == 0);\r\n        stage = Stages.ICO1;\r\n        stopped = false;\r\n        maxCap_ICO1 = 25000000 * 10 **18;       // 25 million\r\n        balances[address(this)] = (balances[address(this)]).add(maxCap_ICO1) ;\r\n        ico1_startdate = now;\r\n        ico1_enddate = now + 7 days;\r\n        _price_tokn = 40; // Price in Cents\r\n        emit  Transfer(0, address(this), maxCap_ICO1);\r\n    }\r\n    \r\n    function start_ICO2() public onlyOwner atStage(Stages.ICO1) {\r\n        require(now > ico1_enddate || balances[address(this)] == 0);\r\n        stage = Stages.ICO2;\r\n        stopped = false;\r\n        maxCap_ICO2 = 25000000 * 10 **18;       // 25 million\r\n        balances[address(this)] = (balances[address(this)]).add(maxCap_ICO2) ;\r\n        ico2_startdate = now;     \r\n        ico2_enddate = now + 7 days;\r\n        emit  Transfer(0, address(this), maxCap_ICO2);\r\n    }\r\n\r\n    function start_ICO3() public onlyOwner atStage(Stages.ICO2) {\r\n        require(now > ico2_enddate || balances[address(this)] == 0);\r\n        stage = Stages.ICO3;\r\n        stopped = false;\r\n        maxCap_ICO3 = 25000000 * 10 **18;       // 25 million\r\n        balances[address(this)] = (balances[address(this)]).add(maxCap_ICO3) ;\r\n        ico3_startdate = now;\r\n        ico3_enddate = now + 7 days;\r\n        emit Transfer(0, address(this), maxCap_ICO3);\r\n    }\r\n      \r\n    function start_ICO4() public onlyOwner atStage(Stages.ICO3) {\r\n        require(now > ico3_enddate || balances[address(this)] == 0);\r\n        stage = Stages.ICO4;\r\n        stopped = false;\r\n        maxCap_ICO4 = 25000000 * 10 **18;           // 25 million\r\n        balances[address(this)] = (balances[address(this)]).add(maxCap_ICO4) ;\r\n        ico4_startdate = now;\r\n        ico4_enddate = now + 7 days;\r\n        emit Transfer(0, address(this),maxCap_ICO4);\r\n    }\r\n    \r\n    // called by the owner, pause ICO\r\n    function PauseICO() external onlyOwner {\r\n        stopped = true;\r\n    }\r\n\r\n    // called by the owner , resumes ICO\r\n    function ResumeICO() external onlyOwner {\r\n        stopped = false;\r\n    }\r\n\r\n    function end_ICO() external onlyOwner atStage(Stages.ICO4) {\r\n        require(now > ico4_enddate || balances[address(this)] == 0);\r\n        stage = Stages.ENDED;\r\n        _totalsupply = (_totalsupply).sub(balances[address(this)]);\r\n        balances[address(this)] = 0;\r\n        emit Transfer(address(this), 0 , balances[address(this)]);\r\n    }\r\n    \r\n    // what is the total supply of the ech tokens?\r\n    function totalSupply() public view returns (uint256 total_Supply) {\r\n        total_Supply = _totalsupply;\r\n    }\r\n    \r\n    // What is the balance of a particular account?\r\n    function balanceOf(address _owner)public view returns (uint256 balance) {\r\n        return balances[_owner];\r\n    }\r\n\r\n    // Send _value amount of tokens from address _from to address _to\r\n    // The transferFrom method is used for a withdraw workflow, allowing contracts to send\r\n    // tokens on your behalf, for example to \"deposit\" to a contract address and/or to charge\r\n    // fees in sub-currencies; the command should fail unless the _from account has\r\n    // deliberately authorized the sender of the message via some mechanism; we propose\r\n    // these standardized APIs for approval:\r\n    function transferFrom( address _from, address _to, uint256 _amount )public returns (bool success) {\r\n        require(_to != 0x0);\r\n        require(balances[_from] >= _amount && allowed[_from][msg.sender] >= _amount && _amount >= 0);\r\n        balances[_from] = (balances[_from]).sub(_amount);\r\n        allowed[_from][msg.sender] = (allowed[_from][msg.sender]).sub(_amount);\r\n        balances[_to] = (balances[_to]).add(_amount);\r\n        emit Transfer(_from, _to, _amount);\r\n        return true;\r\n    }\r\n\r\n    // Allow _spender to withdraw from your account, multiple times, up to the _value amount.\r\n    // If this function is called again it overwrites the current allowance with _value.\r\n    function approve(address _spender, uint256 _amount)public returns (bool success) {\r\n        require(_spender != 0x0);\r\n        allowed[msg.sender][_spender] = _amount;\r\n        emit Approval(msg.sender, _spender, _amount);\r\n        return true;\r\n    }\r\n  \r\n    function allowance(address _owner, address _spender)public view returns (uint256 remaining) {\r\n        require(_owner != 0x0 && _spender != 0x0);\r\n        return allowed[_owner][_spender];\r\n    }\r\n\r\n    // Transfer the balance from owner's account to another account\r\n    function transfer(address _to, uint256 _amount)public returns (bool success) {\r\n        require(_to != 0x0);\r\n        require(balances[msg.sender] >= _amount && _amount >= 0);\r\n        balances[msg.sender] = (balances[msg.sender]).sub(_amount);\r\n        balances[_to] = (balances[_to]).add(_amount);\r\n        emit Transfer(msg.sender, _to, _amount);\r\n        return true;\r\n    }\r\n    \r\n    // Transfer the balance from owner's account to another account\r\n    function transferTokens(address _to, uint256 _amount) private returns(bool success) {\r\n        require(_to != 0x0);\r\n        require(balances[address(this)] >= _amount && _amount > 0);\r\n        balances[address(this)] = (balances[address(this)]).sub(_amount);\r\n        balances[_to] = (balances[_to]).add(_amount);\r\n        emit Transfer(address(this), _to, _amount);\r\n        return true;\r\n    }\r\n    \r\n    function drain() external onlyOwner {\r\n        address myAddress = this;\r\n        owner.transfer(myAddress.balance);\r\n    }\r\n}",
  "sourcePath": "C:\\Users\\shach\\Documents\\Blockchain Mind\\eZ.Exchange\\ezexchange-ico\\contracts\\EZXCrowdsale.sol",
  "compiler": {
    "name": "solc",
    "version": "0.4.21+commit.dfe3193c.Emscripten.clang"
  },
  "schemaVersion": "2.0.0",
  "updatedAt": "2018-04-29T18:19:16.757Z"
}